{
  "contractName": "TaskManager",
  "abi": [
    {
      "inputs": [],
      "stateMutability": "nonpayable",
      "type": "constructor"
    },
    {
      "anonymous": false,
      "inputs": [
        {
          "indexed": false,
          "internalType": "address",
          "name": "owner",
          "type": "address"
        },
        {
          "indexed": false,
          "internalType": "string",
          "name": "name",
          "type": "string"
        },
        {
          "indexed": false,
          "internalType": "enum TaskManager.TaskPhase",
          "name": "phase",
          "type": "uint8"
        },
        {
          "indexed": false,
          "internalType": "uint256",
          "name": "priority",
          "type": "uint256"
        }
      ],
      "name": "TaskAdded",
      "type": "event"
    },
    {
      "inputs": [],
      "name": "nTasks",
      "outputs": [
        {
          "internalType": "uint256",
          "name": "",
          "type": "uint256"
        }
      ],
      "stateMutability": "view",
      "type": "function"
    },
    {
      "inputs": [
        {
          "internalType": "uint256",
          "name": "_taskIndex",
          "type": "uint256"
        }
      ],
      "name": "getTask",
      "outputs": [
        {
          "internalType": "address",
          "name": "owner",
          "type": "address"
        },
        {
          "internalType": "string",
          "name": "name",
          "type": "string"
        },
        {
          "internalType": "enum TaskManager.TaskPhase",
          "name": "phase",
          "type": "uint8"
        },
        {
          "internalType": "uint256",
          "name": "priority",
          "type": "uint256"
        }
      ],
      "stateMutability": "view",
      "type": "function"
    },
    {
      "inputs": [],
      "name": "listMyTasks",
      "outputs": [
        {
          "internalType": "uint256[]",
          "name": "",
          "type": "uint256[]"
        }
      ],
      "stateMutability": "view",
      "type": "function"
    },
    {
      "inputs": [
        {
          "internalType": "string",
          "name": "_name",
          "type": "string"
        },
        {
          "internalType": "enum TaskManager.TaskPhase",
          "name": "_phase",
          "type": "uint8"
        },
        {
          "internalType": "uint256",
          "name": "_priority",
          "type": "uint256"
        }
      ],
      "name": "addTask",
      "outputs": [
        {
          "internalType": "uint256",
          "name": "index",
          "type": "uint256"
        }
      ],
      "stateMutability": "nonpayable",
      "type": "function"
    },
    {
      "inputs": [
        {
          "internalType": "uint256",
          "name": "_taskIndex",
          "type": "uint256"
        },
        {
          "internalType": "enum TaskManager.TaskPhase",
          "name": "_phase",
          "type": "uint8"
        }
      ],
      "name": "updatePhase",
      "outputs": [],
      "stateMutability": "nonpayable",
      "type": "function"
    }
  ],
  "bytecode": "0x60806040523480156200001157600080fd5b5060008081905550620000636040518060400160405280601381526020017f437265617465205461736b204d616e6167657200000000000000000000000000815250600260016200010060201b60201c565b50620000ae6040518060400160405280601581526020017f437265617465206f7572206669727374207461736b0000000000000000000000815250600060016200010060201b60201c565b50620000f96040518060400160405280601081526020017f436c65616e20796f757220686f75736500000000000000000000000000000000815250600060056200010060201b60201c565b506200076a565b60006001821015801562000115575060058211155b62000157576040517f08c379a00000000000000000000000000000000000000000000000000000000081526004016200014e9062000464565b60405180910390fd5b600060405180608001604052803373ffffffffffffffffffffffffffffffffffffffff1681526020018681526020018560068111156200019c576200019b62000486565b5b8152602001848152509050600181908060018154018082558091505060019003906000526020600020906004020160009091909190915060008201518160000160006101000a81548173ffffffffffffffffffffffffffffffffffffffff021916908373ffffffffffffffffffffffffffffffffffffffff16021790555060208201518160010190805190602001906200023892919062000353565b5060408201518160020160006101000a81548160ff0219169083600681111562000267576200026662000486565b5b0217905550606082015181600301555050600180805490506200028b9190620004ee565b9150600080815480929190620002a19062000529565b9190505550600260003373ffffffffffffffffffffffffffffffffffffffff1673ffffffffffffffffffffffffffffffffffffffff1681526020019081526020016000208290806001815401808255809150506001900390600052602060002001600090919091909150557f6f01dc0a3f1209ed3a201b417e08a69b7ab49236895cbcfa0f62b481101d7e1033868686604051620003439493929190620006b1565b60405180910390a1509392505050565b828054620003619062000734565b90600052602060002090601f016020900481019282620003855760008555620003d1565b82601f10620003a057805160ff1916838001178555620003d1565b82800160010185558215620003d1579182015b82811115620003d0578251825591602001919060010190620003b3565b5b509050620003e09190620003e4565b5090565b5b80821115620003ff576000816000905550600101620003e5565b5090565b600082825260208201905092915050565b7f7072696f72697479206d757374206265206265747765656e203120616e642035600082015250565b60006200044c60208362000403565b9150620004598262000414565b602082019050919050565b600060208201905081810360008301526200047f816200043d565b9050919050565b7f4e487b7100000000000000000000000000000000000000000000000000000000600052602160045260246000fd5b6000819050919050565b7f4e487b7100000000000000000000000000000000000000000000000000000000600052601160045260246000fd5b6000620004fb82620004b5565b91506200050883620004b5565b9250828210156200051e576200051d620004bf565b5b828203905092915050565b60006200053682620004b5565b91507fffffffffffffffffffffffffffffffffffffffffffffffffffffffffffffffff8214156200056c576200056b620004bf565b5b600182019050919050565b600073ffffffffffffffffffffffffffffffffffffffff82169050919050565b6000620005a48262000577565b9050919050565b620005b68162000597565b82525050565b600081519050919050565b60005b83811015620005e7578082015181840152602081019050620005ca565b83811115620005f7576000848401525b50505050565b6000601f19601f8301169050919050565b60006200061b82620005bc565b62000627818562000403565b935062000639818560208601620005c7565b6200064481620005fd565b840191505092915050565b6007811062000663576200066262000486565b5b50565b600081905062000676826200064f565b919050565b6000620006888262000666565b9050919050565b6200069a816200067b565b82525050565b620006ab81620004b5565b82525050565b6000608082019050620006c86000830187620005ab565b8181036020830152620006dc81866200060e565b9050620006ed60408301856200068f565b620006fc6060830184620006a0565b95945050505050565b7f4e487b7100000000000000000000000000000000000000000000000000000000600052602260045260246000fd5b600060028204905060018216806200074d57607f821691505b6020821081141562000764576200076362000705565b5b50919050565b610dcb806200077a6000396000f3fe608060405234801561001057600080fd5b50600436106100575760003560e01c80631d65e77e1461005c5780633e625c401461008f578063a082a819146100bf578063e2c53075146100dd578063e95528f1146100fb575b600080fd5b61007660048036038101906100719190610710565b610117565b604051610086949392919061089d565b60405180910390f35b6100a960048036038101906100a49190610a43565b61027a565b6040516100b69190610ab2565b60405180910390f35b6100c76104bb565b6040516100d49190610b8b565b60405180910390f35b6100e5610550565b6040516100f29190610ab2565b60405180910390f35b61011560048036038101906101109190610bad565b610556565b005b600060606000806001858154811061013257610131610bed565b5b906000526020600020906004020160000160009054906101000a900473ffffffffffffffffffffffffffffffffffffffff1693506001858154811061017a57610179610bed565b5b9060005260206000209060040201600101805461019690610c4b565b80601f01602080910402602001604051908101604052809291908181526020018280546101c290610c4b565b801561020f5780601f106101e45761010080835404028352916020019161020f565b820191906000526020600020905b8154815290600101906020018083116101f257829003601f168201915b505050505092506001858154811061022a57610229610bed565b5b906000526020600020906004020160020160009054906101000a900460ff1691506001858154811061025f5761025e610bed565b5b90600052602060002090600402016003015490509193509193565b60006001821015801561028e575060058211155b6102cd576040517f08c379a00000000000000000000000000000000000000000000000000000000081526004016102c490610cc9565b60405180910390fd5b600060405180608001604052803373ffffffffffffffffffffffffffffffffffffffff16815260200186815260200185600681111561030f5761030e610817565b5b8152602001848152509050600181908060018154018082558091505060019003906000526020600020906004020160009091909190915060008201518160000160006101000a81548173ffffffffffffffffffffffffffffffffffffffff021916908373ffffffffffffffffffffffffffffffffffffffff16021790555060208201518160010190805190602001906103a9929190610623565b5060408201518160020160006101000a81548160ff021916908360068111156103d5576103d4610817565b5b0217905550606082015181600301555050600180805490506103f79190610d18565b915060008081548092919061040b90610d4c565b9190505550600260003373ffffffffffffffffffffffffffffffffffffffff1673ffffffffffffffffffffffffffffffffffffffff1681526020019081526020016000208290806001815401808255809150506001900390600052602060002001600090919091909150557f6f01dc0a3f1209ed3a201b417e08a69b7ab49236895cbcfa0f62b481101d7e10338686866040516104ab949392919061089d565b60405180910390a1509392505050565b6060600260003373ffffffffffffffffffffffffffffffffffffffff1673ffffffffffffffffffffffffffffffffffffffff16815260200190815260200160002080548060200260200160405190810160405280929190818152602001828054801561054657602002820191906000526020600020905b815481526020019060010190808311610532575b5050505050905090565b60005481565b813373ffffffffffffffffffffffffffffffffffffffff166001828154811061058257610581610bed565b5b906000526020600020906004020160000160009054906101000a900473ffffffffffffffffffffffffffffffffffffffff1673ffffffffffffffffffffffffffffffffffffffff16141561061e5781600184815481106105e5576105e4610bed565b5b906000526020600020906004020160020160006101000a81548160ff0219169083600681111561061857610617610817565b5b02179055505b505050565b82805461062f90610c4b565b90600052602060002090601f0160209004810192826106515760008555610698565b82601f1061066a57805160ff1916838001178555610698565b82800160010185558215610698579182015b8281111561069757825182559160200191906001019061067c565b5b5090506106a591906106a9565b5090565b5b808211156106c25760008160009055506001016106aa565b5090565b6000604051905090565b600080fd5b600080fd5b6000819050919050565b6106ed816106da565b81146106f857600080fd5b50565b60008135905061070a816106e4565b92915050565b600060208284031215610726576107256106d0565b5b6000610734848285016106fb565b91505092915050565b600073ffffffffffffffffffffffffffffffffffffffff82169050919050565b60006107688261073d565b9050919050565b6107788161075d565b82525050565b600081519050919050565b600082825260208201905092915050565b60005b838110156107b857808201518184015260208101905061079d565b838111156107c7576000848401525b50505050565b6000601f19601f8301169050919050565b60006107e98261077e565b6107f38185610789565b935061080381856020860161079a565b61080c816107cd565b840191505092915050565b7f4e487b7100000000000000000000000000000000000000000000000000000000600052602160045260246000fd5b6007811061085757610856610817565b5b50565b600081905061086882610846565b919050565b60006108788261085a565b9050919050565b6108888161086d565b82525050565b610897816106da565b82525050565b60006080820190506108b2600083018761076f565b81810360208301526108c481866107de565b90506108d3604083018561087f565b6108e0606083018461088e565b95945050505050565b600080fd5b600080fd5b7f4e487b7100000000000000000000000000000000000000000000000000000000600052604160045260246000fd5b61092b826107cd565b810181811067ffffffffffffffff8211171561094a576109496108f3565b5b80604052505050565b600061095d6106c6565b90506109698282610922565b919050565b600067ffffffffffffffff821115610989576109886108f3565b5b610992826107cd565b9050602081019050919050565b82818337600083830152505050565b60006109c16109bc8461096e565b610953565b9050828152602081018484840111156109dd576109dc6108ee565b5b6109e884828561099f565b509392505050565b600082601f830112610a0557610a046108e9565b5b8135610a158482602086016109ae565b91505092915050565b60078110610a2b57600080fd5b50565b600081359050610a3d81610a1e565b92915050565b600080600060608486031215610a5c57610a5b6106d0565b5b600084013567ffffffffffffffff811115610a7a57610a796106d5565b5b610a86868287016109f0565b9350506020610a9786828701610a2e565b9250506040610aa8868287016106fb565b9150509250925092565b6000602082019050610ac7600083018461088e565b92915050565b600081519050919050565b600082825260208201905092915050565b6000819050602082019050919050565b610b02816106da565b82525050565b6000610b148383610af9565b60208301905092915050565b6000602082019050919050565b6000610b3882610acd565b610b428185610ad8565b9350610b4d83610ae9565b8060005b83811015610b7e578151610b658882610b08565b9750610b7083610b20565b925050600181019050610b51565b5085935050505092915050565b60006020820190508181036000830152610ba58184610b2d565b905092915050565b60008060408385031215610bc457610bc36106d0565b5b6000610bd2858286016106fb565b9250506020610be385828601610a2e565b9150509250929050565b7f4e487b7100000000000000000000000000000000000000000000000000000000600052603260045260246000fd5b7f4e487b7100000000000000000000000000000000000000000000000000000000600052602260045260246000fd5b60006002820490506001821680610c6357607f821691505b60208210811415610c7757610c76610c1c565b5b50919050565b7f7072696f72697479206d757374206265206265747765656e203120616e642035600082015250565b6000610cb3602083610789565b9150610cbe82610c7d565b602082019050919050565b60006020820190508181036000830152610ce281610ca6565b9050919050565b7f4e487b7100000000000000000000000000000000000000000000000000000000600052601160045260246000fd5b6000610d23826106da565b9150610d2e836106da565b925082821015610d4157610d40610ce9565b5b828203905092915050565b6000610d57826106da565b91507fffffffffffffffffffffffffffffffffffffffffffffffffffffffffffffffff821415610d8a57610d89610ce9565b5b60018201905091905056fea2646970667358221220055f7d6adf12cbc021d0038172babc21474e913c7aff917a3f6646af407ba3c364736f6c634300080a0033",
  "immutableReferences": {},
  "source": "pragma solidity 0.8.10;\r\n\r\ncontract TaskManager {\r\n    uint256 public nTasks;\r\n\r\n    enum TaskPhase {\r\n        ToDo,\r\n        InProgress,\r\n        Done,\r\n        Blocked,\r\n        Review,\r\n        Postponed,\r\n        Canceled\r\n    }\r\n\r\n    struct TaskStruct {\r\n        address owner;\r\n        string name;\r\n        TaskPhase phase;\r\n        uint256 priority;\r\n    }\r\n\r\n    TaskStruct[] private tasks;\r\n\r\n    mapping(address => uint256[]) private myTasks;\r\n\r\n    event TaskAdded(\r\n        address owner,\r\n        string name,\r\n        TaskPhase phase,\r\n        uint256 priority\r\n    );\r\n\r\n    modifier onlyOwner(uint256 _taskIndex) {\r\n        if (tasks[_taskIndex].owner == msg.sender) {\r\n            _;\r\n        }\r\n    }\r\n\r\n    constructor() {\r\n        nTasks = 0;\r\n        addTask(\"Create Task Manager\", TaskPhase.Done, 1);\r\n        addTask(\"Create our first task\", TaskPhase.ToDo, 1);\r\n        addTask(\"Clean your house\", TaskPhase.ToDo, 5);\r\n    }\r\n\r\n    function getTask(uint256 _taskIndex)\r\n        public\r\n        view\r\n        returns (\r\n            address owner,\r\n            string memory name,\r\n            TaskPhase phase,\r\n            uint256 priority\r\n        )\r\n    {\r\n        owner = tasks[_taskIndex].owner;\r\n        name = tasks[_taskIndex].name;\r\n        phase = tasks[_taskIndex].phase;\r\n        priority = tasks[_taskIndex].priority;\r\n    }\r\n\r\n    function listMyTasks() public view returns (uint256[] memory) {\r\n        return myTasks[msg.sender];\r\n    }\r\n\r\n    function addTask(\r\n        string memory _name,\r\n        TaskPhase _phase,\r\n        uint256 _priority\r\n    ) public returns (uint256 index) {\r\n        require(\r\n            (_priority >= 1 && _priority <= 5),\r\n            \"priority must be between 1 and 5\"\r\n        );\r\n        TaskStruct memory taskAux = TaskStruct({\r\n            owner: msg.sender,\r\n            name: _name,\r\n            phase: _phase,\r\n            priority: _priority\r\n        });\r\n        tasks.push(taskAux);\r\n        index = tasks.length - 1;\r\n\r\n        nTasks++;\r\n        myTasks[msg.sender].push(index);\r\n        emit TaskAdded(msg.sender, _name, _phase, _priority);\r\n    }\r\n\r\n    function updatePhase(uint256 _taskIndex, TaskPhase _phase)\r\n        public\r\n        onlyOwner(_taskIndex)\r\n    {\r\n        tasks[_taskIndex].phase = _phase;\r\n    }\r\n}\r\n",
  "sourcePath": "C:\\Users\\user\\Desktop\\solidity\\TaskManager\\contracts\\TaskManager.sol",
  "compiler": {
    "name": "solc",
    "version": "0.8.10+commit.fc410830.Emscripten.clang"
  },
  "schemaVersion": "3.4.4",
  "updatedAt": "2021-12-23T02:15:12.490Z",
  "devdoc": {
    "kind": "dev",
    "methods": {},
    "version": 1
  },
  "userdoc": {
    "kind": "user",
    "methods": {},
    "version": 1
  }
}